:100000000C9434000C9488000C94BD000C94F20005
:100010000C9451000C9453000C9451000C9451001A
:100020000C9451000C9451000C9451000C9451000C
:100030000C9451000C9451000C9451000C945100FC
:100040000C9451000C9451000C9451000C945100EC
:100050000C9451000C9451000C9451000C945100DC
:100060000C9451000C94510011241FBECFEFD8E026
:10007000DEBFCDBF11E0A0E0B1E0E6EAF1E102C0F1
:1000800005900D92A230B107D9F711E0A2E0B1E0DE
:1000900001C01D92AD36B107E1F70E947F080C94B4
:1000A000D1080C9400001F920F920FB60F921124EA
:1000B0002F933F938F939F93499B09C08091840016
:1000C00090918500909348018093470118C081E08A
:1000D00090E090935A01809359018091840090910F
:1000E00085002091470130914801821B930B90932A
:1000F0005E0180935D0110925A01109259019F9107
:100100008F913F912F910F900FBE0F901F901895D8
:100110001F920F920FB60F9211242F933F938F933C
:100120009F934A9B09C08091840090918500909391
:1001300027018093260118C081E090E090935A0136
:10014000809359018091840090918500209126012F
:1001500030912701821B930B90933D0180933C01CA
:1001600010925A01109259019F918F913F912F91B6
:100170000F900FBE0F901F9018951F920F920FB601
:100180000F9211242F933F938F939F934B9B09C002
:100190008091840090918500909333018093320187
:1001A00018C081E090E090935A01809359018091AA
:1001B0008400909185002091320130913301821B9F
:1001C000930B909352018093510110925A01109217
:1001D00059019F918F913F912F910F900FBE0F90DA
:1001E0001F9018951F920F920FB60F9211242F9304
:1001F0003F938F939F931F9B09C0809184009091A0
:1002000085009093500180934F0118C081E090E0E9
:1002100090935A01809359018091840090918500B8
:1002200020914F0130915001821B930B9093290133
:100230008093280110925A01109259019F918F9139
:100240003F912F910F900FBE0F901F9018958FE345
:1002500080937E0010927B00089583E080937C0061
:1002600086EC80937A0080917A0086FDFCCF209105
:1002700078004091790080E094E0821B9109342F4E
:1002800020E0821B930B90934A01809349016AE01E
:1002900070E00E948408709337016093360184E017
:1002A00080937C0086EC80937A0080917A0086FDB2
:1002B000FCCF209178004091790080E094E0821B8F
:1002C0009109342F20E0821B930B90934C01809373
:1002D0004B016AE070E00E948408709339016093DA
:1002E000380185E080937C0086EC80937A008091D1
:1002F0007A0086FDFCCF209178004091790080E063
:1003000094E0821B9109342F20E0821B930B909381
:100310004E0180934D016AE070E00E948408709362
:100320003B0160933A01089580937C0086EC8093B2
:100330007A0080917A0086FDFCCF0895482F82E0F4
:1003400080937C0086EC80937A0080917A0086FD11
:10035000FCCF3091780020917900922F80E0BC0191
:10036000630F711D9B0170931E0160931D01442357
:1003700051F48091040190910501281B390B3093B1
:100380001E0120931D0181E080937C0086EC809308
:100390007A0080917A0086FDFCCF30917800209120
:1003A0007900922F80E0BC01630F711D9B01709357
:1003B000200160931F01442351F480910601909124
:1003C0000701281B390B3093200120931F01109245
:1003D0007C0086EC80937A0080917A0086FDFCCFC9
:1003E0003091780020917900922F80E0BC01630F5A
:1003F000711D9B017093220160932101442351F4EC
:100400008091080190910901281B390B309322013A
:100410002093210108951F930E942D011092050140
:100420001092040110920701109206011092090126
:100430001092080110E081E00E949E016091040189
:100440007091050180911D0190911E01680F791F27
:1004500070930501609304014091060150910701DA
:1004600080911F0190912001480F591F509307015F
:1004700040930601209108013091090180912101EA
:1004800090912201280F391F309309012093080110
:100490001F5F103281F6E5E075956795EA95E1F703
:1004A000709305016093040195E0559547959A95E1
:1004B000E1F7509307014093060185E035952795B4
:1004C0008A95E1F7309309012093080181E0809338
:1004D000250184E590E0909354018093530190931B
:1004E00056018093550190935801809357011F91B5
:1004F00008958091590190915A01892BD1F78091EB
:100500005D0190915E012091650130916601821B31
:10051000930B959587959595879590932B0180934F
:100520002A018091590190915A01892BD1F780912C
:100530003C0190913D012091670130916801821B3F
:10054000930B959587959595879590934501809305
:1005500044018091590190915A01892BD1F78091E2
:100560005101909152012091690130916A01821BE1
:10057000930BA3E095958795AA95E1F790931C01BD
:1005800080931B018091590190915A01892BD1F7D9
:10059000809128019091290120916B0130916C018B
:1005A000821B930B90931701809316019595879565
:1005B0009595879590932D0180932C0108958091B6
:1005C0000A01882309F4F8C0809123019091240145
:1005D00097FF05C0109224011092230109C08536AF
:1005E000910534F084E690E09093240180932301F8
:1005F00080912E0190912F0197FF05C010922F013D
:1006000010922E0109C0893C910534F088EC90E0ED
:1006100090932F0180932E01809140019091410190
:1006200097FF05C0109241011092400109C0893C1A
:10063000910534F088EC90E0909341018093400163
:10064000809134019091350197FF05C010923501DA
:100650001092340109C0893C910534F088EC90E097
:10066000909335018093340180915B0190915C01FE
:1006700097FF05C010925C0110925B0109C0893C94
:10068000910534F088EC90E090935C0180935B01DD
:100690008091840090918500209113013091140184
:1006A000821B930B9093120180931101A89816BCA2
:1006B0006AE070E00E9484086F5F60930C01772706
:1006C00067FD709584E690E0861B970B9093100170
:1006D00080930F012091230130912401280F391FAD
:1006E000A89816BCA0912E01B0912F01E091400175
:1006F000F0914101609134017091350140915B01AD
:1007000050915C0190E026C086B58035E8F386B54F
:10071000805586BD2115310521F02150304009F466
:100720002A98109719F0119709F42998309719F021
:10073000319709F428986115710521F061507040D6
:1007400009F45F984115510521F04150504009F4DA
:100750005E989F5F983CC0F2309324012093230160
:10076000B0932F01A0932E01F0934101E09340013B
:10077000709335016093340150935C0140935B01A9
:1007800090931501209100013091010121503040DA
:10079000A89816BC08C086B58035E8F386B58055A4
:1007A00086BD2150304021153105A9F78FEF9FEF0D
:1007B00090930E0180930D0180914601882309F1E9
:1007C000809184009091850090931401809313018F
:1007D00051E050930A012A9A40910B01242F30E0F6
:1007E00080910201909103012817390739F4299A61
:1007F000289A5F9A5E9A50930B0108954F5F409339
:100800000B01089581E0809362018093630110924F
:10081000640120EF35E03093660120936501309349
:1008200068012093670180E694E090936A018093C9
:10083000690130936C0120936B01089508C000009A
:10084000000000000000000000000000815088232C
:10085000B1F708951F93CF93DF93EC0108C010E028
:1008600084E60E941E041F5F1A30D1F7219720975B
:10087000B1F7DF91CF911F910895EF92FF920F93FF
:100880001F93CF93DF930E947902809146018823C2
:1008900009F051C080911B0190911C0197FF4BC042
:1008A0002091B20080911801281B8091190190912C
:1008B0001A01820F911D90931A0180931901809162
:1008C000B2008093180180912C0190912D01CC975A
:1008D0005CF0809144019091450197FF03C0909591
:1008E00081959F4F4F9724F010921A011092190191
:1008F0008091190190911A0183549F40E0F081E0AA
:10090000809346012E981092600110925F010E9420
:100910000B0210920A012E9A82E390E090933F011D
:1009200080933E0190933101809330019093430175
:100930008093420178C180E00E949E0184E590E0AE
:1009400090932F0180932E01909341018093400159
:100950008EE590E0909335018093340190935C0193
:1009600080935B0180914601882359F41092240101
:100970001092230181E0809346010E94DF021092D1
:10098000460180911B0190911C019093240180935A
:1009900023012091360130913701C901880F991F39
:1009A000820F931F20911D0130911E01AC01429FC7
:1009B000C001439F900D529F900D112468EC70E090
:1009C0000E949808FB0170931E0160931D01209105
:1009D0003E0130913F0180912A0190912B01AC01A1
:1009E000249FC001259F900D349F900D112464E633
:1009F00070E00E9498089B0180916201882339F47D
:100A0000E60FF71FF0932B01E0932A0106C02E1B7F
:100A10003F0B30932B0120932A01209153013091F9
:100A2000540180912A0190912B01820F931FE3E0E2
:100A300095958795EA95E1F790932B0180932A018C
:100A40007901E81AF90AF0925401E0925301C09139
:100A50004001D091410100915B0110915C01209116
:100A6000380130913901C901880F991F820F931FF6
:100A700020911F0130912001AC01429FC001439F92
:100A8000900D529F900D112468EC70E00E94980820
:100A9000FB017093200160931F0120913001309180
:100AA00031018091440190914501AC01249FC00126
:100AB000259F900D349F900D112464E670E00E94F4
:100AC00098089B0180916301882339F4E60FF71F92
:100AD000F0934501E093440106C02E1B3F0B309379
:100AE0004501209344012091550130915601809198
:100AF000440190914501820F931F63E0959587957E
:100B00006A95E1F79093450180934401281B390BC6
:100B10003093560120935501C20FD31FCE19DF0920
:100B2000D0934101C09340010E191F09021B130B02
:100B300010935C0100935B0120913A0130913B01DD
:100B4000C901880F991F820F931F209121013091B5
:100B50002201AC01429FC001439F900D529F900D16
:100B6000112468EC70E00E949808FB017093220148
:100B700060932101209142013091430180912C0129
:100B800090912D01AC01249FC001259F900D349FB1
:100B9000900D112464E670E00E9498089B018091FA
:100BA0006401882339F4E60FF71FF0932D01E093D9
:100BB0002C0106C02E1B3F0B30932D0120932C01DE
:100BC000809157019091580120912C0130912D0175
:100BD000281B390B43E0359527954A95E1F730936B
:100BE0002D0120932C01280F391F30935801209399
:100BF000570180912E0190912F01821B930B9093AE
:100C00002F0180932E018091340190913501821B38
:100C1000930B909335018093340180914601882392
:100C200011F00E94DF02DF91CF911F910F91FF9091
:100C3000EF9008951F93CF93DF93EC01162F0E943E
:100C4000BB08811721F0CE01612F0E94C308DF91FC
:100C5000CF911F910895CF92DF92EF92FF920F9361
:100C60001F93CF93DF938C016B017A01C0E0D0E03A
:100C700009C0C6018C0F9D1FF80161918F010E9470
:100C80001A062196CE15DF05A0F3DF91CF911F91B3
:100C90000F91FF90EF90DF90CF900895F89481E648
:100CA00091E060E070E04CE050E00E942B06789408
:100CB000089580E090E00E94BB08873441F087E40B
:100CC000809361010E9402040E944E06089581E60D
:100CD00091E060E070E04CE050E00E94AB080895C5
:100CE000CF92DF92EF92FF920F931F93CF93DF93F8
:100CF00085B7806185BF5198529853982798389846
:100D000039983A983D983C983B98229A219A209A93
:100D1000579A569A269A2E9849984A984B981F980F
:100D20008091680081608093680080916800846091
:100D30008093680080916B00806880936B00809145
:100D40006D00826080936D0085E08093690083E090
:100D50008DBB8CB383608CBB14BC81E085BD1092CD
:100D60006E001092800082E0809381001092B000AB
:100D700087E08093B1001092700017BA1092B20011
:100D800021E030E0F90131968FEE91E0B9010E9447
:100D900084086333710510F09F01F4CF3093030191
:100DA0002093020184E590E09093540180935301D5
:100DB0009093560180935501909358018093570169
:100DC0000E9459068FE380937E0010927B00109260
:100DD00025011092460110925A01109259018091FA
:100DE00065019091660190935E0180935D01809111
:100DF00067019091680190933D0180933C0180913F
:100E0000690190916A019093520180935101809100
:100E10006B0190916C0190932901809328012E9A87
:100E200086E990E00E942A042E987894109224017A
:100E30001092230184E590E090932F0180932E017E
:100E400090934101809340018EE590E090933501AD
:100E50008093340190935C0180935B0181E08093E7
:100E600046010E94DF020E94DF020E94DF02109210
:100E7000460184E690E00E942A040E942D010E940F
:100E80002D0180914B0190914C01C39708F093C0C4
:100E90008091490190914A01C39748F480914D0196
:100EA00090914E01C39718F40E940204FFCF109254
:100EB000660110926501109268011092670110920C
:100EC0006C0110926B01C0E0D0E02E9A86E990E0B0
:100ED0000E942A042E9886E990E00E942A04219616
:100EE000C630D10591F7C0E0D0E02E9A82E390E0C1
:100EF0000E942A042E9882E390E00E942A04219600
:100F0000C431D10591F7C0E0D0E02E9A86E990E097
:100F10000E942A042E9886E990E00E942A042196D5
:100F2000C330D10591F7C0E0D0E0EE24FF2400E00B
:100F300010E0CC24DD240E94790280912A01909156
:100F40002B01E80EF91E8091440190914501080F94
:100F5000191F80912C0190912D01C80ED91E84E695
:100F600090E00E942A042196C430D10521F7F09226
:100F70006601E0926501109368010093670180E6C5
:100F800094E090936A0180936901D0926C01C092C1
:100F90006B012E9A86E990E00E942A042E9886E939
:100FA00090E00E942A040E944E062E9A86E990E064
:100FB0000E942A042E988091490190914A01C3977A
:100FC00008F050C0C0E0D0E02E9A89E190E00E9485
:100FD0002A042E9889E190E00E942A042196C330C9
:100FE000D10591F711E00E94790280912A01909138
:100FF0002B01825E9F4F2CF4109262010E944E06DC
:101000002E9A80912A0190912B014F971CF01093FA
:1010100062011FC080914401909145012FEF823EF3
:1010200092071CF41092630114C04F971CF01093A8
:1010300063010FC080912C0190912D012FEF823E12
:1010400092071CF41092640104C04F972CF0109387
:1010500064010E944E062E9A82E390E00E942A04C8
:101060002E98C1CF80914D0190914E01C397F0F51C
:10107000C0E0D0E02E9A89E190E00E942A042E98E8
:1010800089E190E00E942A042196C330D10591F7AE
:1010900081E08093460188E097E09093010180937E
:1010A000000181E090E09093030180930201CCE87D
:1010B000D0E00E94790280911B0190911C019093D5
:1010C000240180932301D0932F01C0932E01D0934C
:1010D0004101C0934001D0933501C0933401D093B6
:1010E0005C01C0935B010E94DF02E3CFDF91CF91EF
:1010F0001F910F91FF90EF90DF90CF9008950E9485
:1011000070060E943D04FDCFAA1BBB1B51E107C026
:10111000AA1FBB1FA617B70710F0A61BB70B881F87
:10112000991F5A95A9F780959095BC01CD01089516
:1011300097FB092E07260AD077FD04D0E5DF06D0FD
:1011400000201AF4709561957F4F0895F6F79095F9
:1011500081959F4F0895DC01CB01FC01F999FECFE9
:1011600006C0F2BDE1BDF89A319600B40D9241502F
:101170005040B8F70895F999FECF92BD81BDF89A15
:10118000992780B50895262FF999FECF1FBA92BDF1
:1011900081BD20BD0FB6F894FA9AF99A0FBE019658
:0611A0000895F894FFCF52
:0211A600020045
:00000001FF
